S00F000030372D756172742E73726563C5
S11300000C9434000C9451000C9451000C94510045
S11300100C9451000C9451000C9451000C94510018
S11300200C9451000C9451000C9451000C94510008
S11300300C9451000C944A010C9451000C945100FE
S11300400C9451000C9451000C9480020C94AE0258
S11300500C9451000C945F010C9451000C945100C9
S11300600C9451000C94510011241FBECFEFD8E022
S1130070DEBFCDBF11E0A0E0B1E0EAEFF8E002C0DE
S113008005900D92A438B107D9F721E0A4E8B1E0B6
S113009001C01D92A93EB207E1F70E94F6000C943C
S11300A07B040C940000299A85E08A95F1F70000FE
S11300B029980895CF93C82F662311F0289A01C078
S11300C02898549A559A569A579A5F985E985D98CC
S11300D05C98CC230CF45F9AC6FD5E9AC5FD5D9ACC
S11300E0C4FD5C9A0E9453005F985E985D985C988A
S11300F0C3FD5F9AC2FD5E9AC1FD5D9AC0FD5C9A24
S11301000E9453005C9A5D9A5E9A5F9A87EB9BE02B
S11301100197F1F700C00000CF91089560E00E94BC
S11301205A000895611104C080580E948E000895F9
S113013080540E948E00089581E00E948E000895EC
S113014061E00E945A000895CF93DF93EC01219659
S1130150FC018081882329F00E94A00089918111EB
S1130160FBCFDF91CF910895CF93C82F209A559A52
S1130170219A549A559A569A579A8FEF99EF019764
S1130180F1F700C000005D9A5C9A0E9453008FE171
S11301909EE40197F1F700C000000E9453008FEF26
S11301A090E00197F1F700C000000E9453008FEF28
S11301B090E00197F1F700C000005C980E945300A2
S11301C08FEF90E00197F1F700C0000088E20E94F1
S11301D08E0088E00E948E000E949C0086E00E94AF
S11301E08E008C2F0E948E00CF9108958CE00E9487
S11301F0B40060E081E00E94920089E091E00E94F6
S1130200A40061E083E00E94920080E191E00E94FA
S1130210A40060E088E00E94920085E191E00E94E1
S1130220A40060E08DE00E94920087E191E00E94CA
S1130230A40061E088E00E94920089E191E00E94BC
S1130240A400ECE7F0E080818064808380818F7774
S113025080838081807F8083EAE7F0E0808180680A
S11302608083808188608083808187608083E1E8E7
S1130270F0E080818B7F8083808183608083EFE6E0
S1130280F0E080818160808387E690E00E94D8025C
S11302907894FFCF1F920F920FB60F9211248F9371
S11302A0EF93FF93EAE7F0E0808180648083FF911D
S11302B0EF918F910F900FBE0F901F9018951F9282
S11302C00F920FB60F921124EF92FF921F932F9368
S11302D03F934F935F936F937F938F939F93AF93CA
S11302E0BF93EF93FF93CF93DF93CDB7DEB72897F8
S11302F0DEBFCDBF88E0E0E0F1E0DE0111960190C1
S11303000D928A95E1F7E0907800F09079009701DA
S113031090E180E0422F4170840F369527959150EB
S1130320C9F7182F117061E088E00E94920089E6F5
S113033091E00E94A40061E088E00E9492008BEFAB
S1130340E81683E0F80628F08BE191E00E94A4000F
S113035044C0C70187589240099748F480E291E06D
S11303600E94A40087E291E00E94060336C0C70100
S11303708F589140099748F480E391E00E94A400CB
S113038085E391E00E94060328C0C701825F9109BA
S1130390099748F48EE391E00E94A40083E491E07D
S11303A00E9406031AC0C70181569109099748F4AF
S11303B08CE491E00E94A4008FE491E00E94060383
S11303C00CC085E0E816F10440F488E591E00E9451
S11303D0A4008EE591E00E94060360E088E00E949C
S11303E0920087E691E00E94A4004AE0BE016F5F9C
S11303F07F4FC7010E94460460E088E00E9492009B
S1130400CE0101960E94A4008CEBE81682E0F80667
S113041008F051C0CE0101960E94060380E791E0E6
S11304200E940603B70180E090E00E944B0326EF90
S113043038E24CE950E40E94B1030E941503DC0148
S1130440CB014AE0BE016F5F7F4F0E944604CE019C
S113045001960E94060384E791E00E9406034AE0A5
S1130460BE016F5F7F4F812F90E00E94460489E7B1
S113047091E00E940603CE0101960E94060380E8E3
S113048091E00E94060361E08EE00E949200CE019A
S113049001960E94A40040E1BE016F5F7F4FC70137
S11304A00E94460460E08DE00E949200CE01019615
S11304B00E94A40009C04AE0BE016F5F7F4F812FF4
S11304C090E00E944604DFCF28960FB6F894DEBF72
S11304D00FBECDBFDF91CF91FF91EF91BF91AF914F
S11304E09F918F917F916F915F914F913F912F9148
S11304F01F91FF90EF900F900FBE0F901F901895D3
S11305001F920F920FB60F9211242F938F939F93E4
S1130510EF93FF938091C0002091C6008C71E0910D
S11305208601EF5FEF7390918501E91739F0E0934D
S11305308601F0E0E757FE4F208301C082E09091EE
S11305408401892B80938401FF91EF919F918F9176
S11305502F910F900FBE0F901F9018951F920F921E
S11305600FB60F9211248F939F93EF93FF93909163
S1130570880180918701981769F0E0918701EF5F06
S1130580EF71E0938701F0E0E753FE4F80818093A1
S1130590C60005C0E1ECF0E080818F7D8083FF918F
S11305A0EF919F918F910F900FBE0F901F90189510
S11305B01092880110928701109286011092850191
S11305C099231CF422E02093C00090789093C500F6
S11305D08093C40088E98093C10086E08093C200C0
S11305E00895209188012F5F2F7190918701291719
S11305F0E1F3E22FF0E0E753FE4F8083209388017C
S1130600E1ECF0E08081806280830895CF93DF93F2
S1130610EC018881882331F021960E94F1028991AE
S11306208111FBCFDF91CF9108950E941C03689440
S1130630B1110C94AB0308950E94900388F09F5766
S113064098F0B92F9927B751B0F0E1F0660F771FF2
S1130650881F991F1AF0BA95C9F714C0B13091F0E8
S11306600E94AA03B1E008950C94AA03672F782F7F
S11306708827B85F39F0B93FCCF3869577956795AD
S1130680B395D9F73EF490958095709561957F4F19
S11306908F4F9F4F0895E89409C097FB3EF49095BF
S11306A08095709561957F4F8F4F9F4F9923A9F047
S11306B0F92F96E9BB279395F695879577956795D6
S11306C0B795F111F8CFFAF4BB0F11F460FF1BC01A
S11306D06F5F7F4F8F4F9F4F16C0882311F096E9AD
S11306E011C0772321F09EE8872F762F05C066235B
S11306F071F096E8862F70E060E02AF09A95660F14
S1130700771F881FDAF7880F9695879597F90895CC
S113071057FD9058440F551F59F05F3F71F04795AE
S1130720880F97FB991F61F09F3F79F08795089593
S1130730121613061406551FF2CF4695F1DF08C0B2
S1130740161617061806991FF1CF869571056105CF
S113075008940895E894BB2766277727CB0197F977
S113076008950E94C4030C9435040E94270438F0B1
S11307700E942E0420F0952311F00C941E040C9476
S1130780240411240C94AB030E94880370F3959FF6
S1130790C1F3950F50E0551F629FF001729FBB2774
S11307A0F00DB11D639FAA27F00DB11DAA1F649F10
S11307B06627B00DA11D661F829F2227B00DA11DC3
S11307C0621F739FB00DA11D621F839FA00D611D49
S11307D0221F749F3327A00D611D231F849F600D6A
S11307E0211D822F762F6A2F11249F5750409AF093
S11307F0F1F088234AF0EE0FFF1FBB1F661F771F1F
S1130800881F91505040A9F79E3F510580F00C94E9
S11308101E040C94AB035F3FE4F3983ED4F3869537
S113082077956795B795F795E7959F5FC1F7FE2B89
S1130830880F911D9695879597F9089597F99F6765
S113084080E870E060E008959FEF80EC0895002454
S11308500A941616170618060906089500240A9421
S113086012161306140605060895092E0394000CA7
S113087011F4882352F0BB0F40F4BF2B11F460FF36
S113088004C06F5F7F4F8F4F9F4F0895BB274A303F
S113089031F4992322F4BDE2909581959F4F0C94F5
S11308A05204BB27FB015527AA27880F991FAA1FAB
S11308B0A41710F0A41B83955051B9F7A05DAA3377
S11308C008F0A95DA193009779F7B111B193119242
S11308D0CB010C946B04DC01FC01672F719177232D
S11308E0E1F7329704C07C916D9370836291AE17E7
S10D08F0BF07C8F30895F894FFCF82
S11308FA30303030303030300076616C75653A0013
S113090A6B65793A006100620063006E6F6E650080
S113091A73656C6563740073656C6563743A20006F
S113092A6C656674006C65667420203A2000646FF6
S113093A776E00646F776E20203A20007570007518
S113094A70202020203A2000726967687400726956
S113095A676874203A2000202020202020202000CC
S113096A20402000206D563B00207061723A20001E
S107097A0D0A00005E
S9030000FC
