S015000030342D696E74657272757074732E737265631E
S11300000C9434000C9451000C9451000C94510045
S11300100C9451000C9451000C9451000C94510018
S11300200C9451000C9451000C9451000C94510008
S11300300C9451000C94AF000C9451000C9451009A
S11300400C9451000C9451000C9451000C945100E8
S11300500C9451000C9451000C9451000C945100D8
S11300600C9451000C94510011241FBECFEFD8E022
S1130070DEBFCDBF11E0A0E0B1E0E0E8F2E002C0F5
S113008005900D92A230B107D9F721E0A2E0B1E0CA
S113009001C01D92A330B207E1F70E9478000C94CE
S11300A03E010C940000FC01408121E030E002C0DC
S11300B0220F331F6A95E2F7242B20830895FC0155
S11300C0908121E030E002C0220F331F6A95E2F7ED
S11300D02095292320830895FC01408121E030E00C
S11300E002C0220F331F6A95E2F7242B2083089560
S11300F065E084E290E00E94530065E085E290E0D0
S11301000E946C0064E084E290E00E94530064E08A
S113011085E290E00E946C0063E084E290E00E943B
S1130120530063E085E290E00E946C0062E084E2A8
S113013090E00E94530062E085E290E00E946C002F
S1130140E1E8F0E080818B7F80838081836080831D
S1130150EFE6F0E08081816080837894FFCF1F9286
S11301600F920FB60F9211242F933F934F935F93E7
S11301706F937F938F939F93AF93BF93EF93FF936B
S1130180809102018130A1F01CF4882331F03BC03E
S11301908230F1F0833061F136C063E085E290E0B3
S11301A00E946C0062E085E290E00E945F003FC024
S11301B062E085E290E00E946C0064E085E290E0F9
S11301C00E946C0063E085E290E00E945F002FC013
S11301D063E085E290E00E946C0065E085E290E0D7
S11301E00E946C0064E085E290E00E945F001FC002
S11301F064E085E290E00E946C0065E085E290E0B6
S11302000E945F0014C065E085E290E00E945F00F8
S113021064E085E290E00E945F0063E085E290E0A4
S11302200E945F0062E085E290E00E945F0080919E
S11302300201811104C081E08093000107C0809114
S11302400201833019F48FEF809300019091000133
S113025080910201890F80930201FF91EF91BF9178
S1130260AF919F918F917F916F915F914F913F914A
S11302702F910F900FBE0F901F901895F894FFCFF9
S1050280010077
S9030000FC
