S00F000030332D6770696F2E73726563D6
S11300000C9434000C943E000C943E000C943E007E
S11300100C943E000C943E000C943E000C943E0064
S11300200C943E000C943E000C943E000C943E0054
S11300300C943E000C943E000C943E000C943E0044
S11300400C943E000C943E000C943E000C943E0034
S11300500C943E000C943E000C943E000C943E0024
S11300600C943E000C943E0011241FBECFEFD8E048
S1130070DEBFCDBF0E9481000C9447010C940000A8
S1130080FC01408121E030E002C0220F331F6A9559
S1130090E2F7242B20830895FC01808121E030E0E5
S11300A002C0220F331F6A95E2F7922F909589239D
S11300B0808380818181282B21830895FC01908194
S11300C021E030E002C0220F331F6A95E2F7209549
S11300D0292320830895FC01408121E030E002C0FF
S11300E0220F331F6A95E2F7242B20830895FC0125
S11300F0808190E002C0959587956A95E2F78170BA
S1130100089560E08AE290E00E944C00C0E06C2F09
S113011087E290E00E9440006C2F88E290E00E9409
S11301206B00CF5FC53099F760E089E290E00E94F0
S113013077008111F9CF60E088E290E00E945E00D0
S11301402FEF89E698E1215080409040E1F700C00C
S1130150000061E088E290E00E945E0060E088E2D6
S113016090E00E946B002FEF89E698E121508040D7
S11301709040E1F700C0000062E088E290E00E9455
S11301805E0061E088E290E00E946B002FEF89E658
S113019098E1215080409040E1F700C0000063E006
S11301A088E290E00E945E0062E088E290E00E94B3
S11301B06B002FEF89E698E1215080409040E1F7F1
S11301C000C0000064E088E290E00E945E0063E00A
S11301D088E290E00E946B002FEF89E698E12150BD
S11301E080409040E1F700C0000063E088E290E0C6
S11301F00E945E0064E088E290E00E946B002FEFB2
S113020089E698E1215080409040E1F700C0000069
S113021062E088E290E00E945E0063E088E290E0A1
S11302200E946B002FEF89E698E1215080409040B6
S1130230E1F700C0000061E088E290E00E945E0007
S113024062E088E290E00E946B002FEF89E698E17B
S1130250215080409040E1F700C0000060E088E257
S113026090E00E945E0061E088E290E00E946B00F2
S11302702FEF89E698E1215080409040E1F700C0DB
S1130280000060E088E290E00E946B004DCFF8949B
S1050290FFCF9A
S9030000FC
