S012000030352D7365676D656E742E737265638D
S11300000C9434000C9451000C9451000C94510045
S11300100C9451000C9451000C9451000C94510018
S11300200C9451000C9451000C9451000C94510008
S11300300C9451000C9494000C9451000C945100B5
S11300400C94E1000C9451000C9451000C94510058
S11300500C9451000C9451000C9451000C945100D8
S11300600C9451000C94510011241FBECFEFD8E022
S1130070DEBFCDBF11E0A0E0B1E0E6E6F3E002C0F0
S113008005900D92AC31B107D9F721E0ACE1B1E0B4
S113009001C01D92A132B207E1F70E9478000C94CE
S11300A0B1010C940000FC01408121E030E002C069
S11300B0220F331F6A95E2F7242B20830895FC0155
S11300C0908121E030E002C0220F331F6A95E2F7ED
S11300D02095292320830895FC01408121E030E00C
S11300E002C0220F331F6A95E2F7242B2083089560
S11300F00E942E01E1E8F0E080818B7F8083808183
S113010083608083EFE6F0E080818160808385B541
S11301108B7F85BD85B5836085BDEEE6F0E080818B
S1130120816080837894FFCF1F920F920FB60F9255
S113013011248F9380912001893089F580911F01CA
S11301408530B1F580911E01893069F580911D01DA
S1130150853049F51092200110921F0110921E0162
S113016010921D0128C01092200110921F011092BC
S11301701E0180911D018F5F80931D011CC0109290
S1130180200110921F0180911E018F5F80931E0138
S113019012C0109220018F5F80931F010CC08F5FEB
S11301A08093200108C080911E01893041F7DBCF84
S11301B0853079F7E4CF8F910F900FBE0F901F9089
S11301C018951F920F920FB60F9211242F933F93FD
S11301D04F935F936F937F938F939F93AF93BF934B
S11301E0EF93FF9380911C01813061F028F08230FD
S11301F079F0833099F017C060E0809120010E946B
S11302003E0111C061E080911F010E943E010BC0BC
S113021062E080911E010E943E0105C063E080916E
S11302201D010E943E0180911C01833019F410923B
S11302301C0103C08F5F80931C01FF91EF91BF915C
S1130240AF919F918F917F916F915F914F913F916A
S11302502F910F900FBE0F901F90189564E08AE2C3
S113026090E00E94530067E08AE290E00E9453000D
S113027060E084E290E00E94530008951F93CF93BE
S1130280DF93E82FF0E0EC5FFE4F1081E62FF0E003
S1130290E050FF4FD08164E08BE290E00E945F0069
S11302A067E08BE290E00E945F0060E085E290E00E
S11302B00E945F0085E08A95F1F70000C8E010FD18
S11302C006C060E085E290E00E945F0005C060E047
S11302D085E290E00E946C0085E08A95F1F70000C9
S11302E067E08BE290E00E946C0085E08A95F1F76C
S11302F0000067E08BE290E00E945F001695C15019
S1130300F1F6C8E0D0FD06C060E085E290E00E940E
S11303105F0005C060E085E290E00E946C0085E02B
S11303208A95F1F7000067E08BE290E00E946C0090
S113033085E08A95F1F7000067E08BE290E00E9487
S11303405F00D695C150F1F664E08BE290E00E9424
S11303506C0085E08A95F1F70000DF91CF911F9141
S10903600895F894FFCF9C
S113036610204080039F250D9949411F0119FF7FE5
S10F03763F1F0F8FCFEFE7E363737B00A2
S9030000FC
