S00E000030362D6C63642E7372656350
S11300000C9434000C9451000C9451000C94510045
S11300100C9451000C9451000C9451000C94510018
S11300200C9451000C9440010C9451000C94510018
S11300300C9451000C9457020C9451000C945100F0
S11300400C940A020C9451000C9451000C9451002D
S11300500C9451000C9451000C9451000C945100D8
S11300600C9451000C94510011241FBECFEFD8E022
S1130070DEBFCDBF11E0A0E0B1E0ECECF5E002C0E2
S113008005900D92AA35B107D9F721E0AAE5B1E0B0
S113009001C01D92A336B207E1F70E94FA000C9446
S11300A0E4020C940000299A85E08A95F1F7000097
S11300B029980895CF93C82F662311F0289A01C078
S11300C02898549A559A569A579A5F985E985D98CC
S11300D05C98CC230CF45F9AC6FD5E9AC5FD5D9ACC
S11300E0C4FD5C9A0E9453005F985E985D985C988A
S11300F0C3FD5F9AC2FD5E9AC1FD5D9AC0FD5C9A24
S11301000E9453005C9A5D9A5E9A5F9A87EB9BE02B
S11301100197F1F700C00000CF91089560E00E94BC
S11301205A00089561E00E945A000895611104C0C4
S113013080580E948E00089580540E948E00089575
S113014081E00E948E00089561E00E945A000895A3
S1130150CF93DF93EC012196FC018081882329F061
S11301600E94A40089918111FBCFDF91CF91089562
S1130170CF93C82F209A559A219A549A559A569AF1
S1130180579A8FEF99EF0197F1F700C000005D9A3D
S11301905C9A0E9453008FE19EE40197F1F700C03E
S11301A000000E9453008FEF90E00197F1F700C028
S11301B000000E9453008FEF90E00197F1F700C018
S11301C000005C980E9453008FEF90E00197F1F7D4
S11301D000C0000088E20E948E0088E00E948E0029
S11301E00E94A00086E00E948E008C2F0E948E0048
S11301F0CF9108958CE00E94B80080E40E948E00A4
S1130200C0E0D1E000E311E089910E949200C017A0
S1130210D107D1F780E80E948E0060E081E00E945F
S1130220960080E391E00E94A80060E08BE00E94C9
S1130230960080E30E94A400E1EBF0E080818760F7
S11302408083E0E7F0E080818160808385B58D7FE5
S113025085BD85B5856085BDEEE6F0E08081816071
S11302608083E1E8F0E080818B7F808380818360FC
S11302708083EFE6F0E08081816080837894FFCF13
S11302801F920F920FB60F9211242F933F934F9307
S11302905F936F937F938F939F93AF93BF93EF93EA
S11302A0FF93CF93DF9300D000D0CDB7DEB780E2C9
S11302B090E29A8389839C838B83809162018F5F10
S11302C0863018F4809362018EC01092620180918E
S11302D061018F5F8A3018F48093610116C0109217
S11302E06101809160018F5F8C3318F48093600109
S11302F00CC01092600180915F018F5F8C3318F401
S113030080935F0102C010925F01809161014AE015
S1130310BE016F5F7F4F90E00E94AF0260E087E014
S11303200E94960089810E94A400809160014AE0A5
S1130330BE016F5F7F4F90E00E94AF0260E084E0F7
S11303400E949600809160018A3038F480E30E9414
S1130350A40089810E94A40004C0CE0101960E94D9
S1130360A80080915F014AE0BE016F5F7F4F90E07B
S11303700E94AF0260E081E00E94960080915F01DC
S11303808A3038F480E30E94A40089810E94A4008A
S113039004C0CE0101960E94A80080916001889F4C
S11303A0C001112490935E0180935D014AE0BE0177
S11303B06F5F7F4F0E94AF0260E08BE00E94960067
S11303C0CE0101960E94A80080915D0190915E018A
S11303D0892B49F480E20E94A40080E20E94A400D8
S11303E080E20E94A4000F900F900F900F90DF9175
S11303F0CF91FF91EF91BF91AF919F918F917F9199
S11304006F915F914F913F912F910F900FBE0F907D
S11304101F9018951F920F920FB60F9211242F93CD
S11304203F934F935F936F937F938F939F93AF9378
S1130430BF93CF93EF93FF9380915C018F5F8630DE
S113044018F480935C0117C010925C0180915B01E9
S11304508F5F8A3018F480935B010DC010925B01AA
S1130460C1E0CF5F61E08C2F0E94960080E00E9483
S1130470A400CA30B1F780915B0161E08F5F0E94F4
S1130480960080915C010E94A400FF91EF91CF91AE
S1130490BF91AF919F918F917F916F915F914F9198
S11304A03F912F910F900FBE0F901F9018951F92A0
S11304B00F920FB60F9211241F932F933F934F93D4
S11304C05F936F937F938F939F93AF93BF93CF93D8
S11304D0DF93EF93FF9380915A01813210F01092D1
S11304E05A0161E08BE00E9496001BE0C0E0D0E07E
S11304F061E0812F0E94960080915A019E01280F8D
S1130500311D213231053CF0F901E95EFE4F808155
S11305100E94A40006C0F901E85CFE4F80810E949D
S1130520A40021961F5FC430D10511F780915A01B0
S11305308F5F80935A01FF91EF91DF91CF91BF912B
S1130540AF919F918F917F916F915F914F913F9167
S11305502F911F910F900FBE0F901F901895BB27DE
S11305604A3031F4992322F4BDE2909581959F4F4E
S11305700C94BB02BB27FB015527AA27880F991FA0
S1130580AA1FA41710F0A41B83955051B9F7A05DBE
S1130590AA3308F0A95DA193009779F7B111B1933B
S11305A01192CB010C94D402DC01FC01672F7191F0
S11305B07723E1F7329704C07C916D937083629145
S10F05C0AE17BF07C8F30895F894FFCFEE
S11305CC000000000000000010101010101010109B
S11305DC18181818181818181C1C1C1C1C1C1C1C6B
S11305EC1E1E1E1E1E1E1E1E1F1F1F1F1F1F1F1F13
S11305FC30303A30302E30002020202049206C69D5
S113060C6B65204469676974616C20656C656374FF
S10D061C726F6E696373210A000017
S9030000FC
