S00E000030362D6C63642E7372656350
S11300000C9434000C9451000C9451000C94510045
S11300100C9451000C9451000C9451000C94510018
S11300200C9451000C9440010C9451000C94510018
S11300300C9451000C945C020C9451000C945100EB
S11300400C940F020C9451000C9451000C94510028
S11300500C9451000C9451000C9451000C945100D8
S11300600C9451000C94510011241FBECFEFD8E022
S1130070DEBFCDBF11E0A0E0B1E0E2ECF5E002C0EC
S113008005900D92A635B107D9F721E0A6E5B1E0B8
S113009001C01D92AF35B207E1F70E94FA000C943B
S11300A0DF020C940000299A85E08A95F1F700009C
S11300B029980895CF93C82F662311F0289A01C078
S11300C02898549A559A569A579A5F985E985D98CC
S11300D05C98CC230CF45F9AC6FD5E9AC5FD5D9ACC
S11300E0C4FD5C9A0E9453005F985E985D985C988A
S11300F0C3FD5F9AC2FD5E9AC1FD5D9AC0FD5C9A24
S11301000E9453005C9A5D9A5E9A5F9A87EB9BE02B
S11301100197F1F700C00000CF91089560E00E94BC
S11301205A00089561E00E945A000895611104C0C4
S113013080580E948E00089580540E948E00089575
S113014081E00E948E00089561E00E945A000895A3
S1130150CF93DF93EC012196FC018081882329F061
S11301600E94A40089918111FBCFDF91CF91089562
S1130170CF93C82F209A559A219A549A559A569AF1
S1130180579A8FEF99EF0197F1F700C000005D9A3D
S11301905C9A0E9453008FE19EE40197F1F700C03E
S11301A000000E9453008FEF90E00197F1F700C028
S11301B000000E9453008FEF90E00197F1F700C018
S11301C000005C980E9453008FEF90E00197F1F7D4
S11301D000C0000088E20E948E0088E00E948E0029
S11301E00E94A00086E00E948E008C2F0E948E0048
S11301F0CF9108958CE00E94B80080E40E948E00A4
S1130200C0E0D1E000E311E089910E949200C017A0
S1130210D107D1F780E80E948E0060E081E00E945F
S1130220960080E391E00E94A80060E08BE00E94C9
S1130230960080E30E94A400E1EBF0E080818760F7
S11302408083E0E7F0E080818160808385B58D7FE5
S113025085BD85B5856085BDEEE6F0E08081816071
S11302608083E1E8F0E080818C7F808380818460FA
S11302708083EFE6F0E08081816080837894FFCF13
S11302801F920F920FB60F9211242F933F934F9307
S11302905F936F937F938F939F93AF93BF93EF93EA
S11302A0FF93CF93DF93CDB7DEB72697DEBFCDBFE5
S11302B080E290E29A8389839C838B839E838D83DF
S11302C080915E018F5F863018F480935E018EC04A
S11302D010925E0180915D018F5F8A3018F48093E3
S11302E05D0116C010925D0180915C018F5F8C33BB
S11302F018F480935C010CC010925C0180915B0146
S11303008F5F8C3318F480935B0102C010925B0101
S113031080915D014AE0BE016F5F7F4F90E00E94D3
S1130320AA0260E087E00E94960089810E94A400EE
S113033080915C014AE0BE016F5F7F4F90E00E94B4
S1130340AA0260E084E00E94960080915C018A30F9
S113035038F480E30E94A40089810E94A40004C0B0
S1130360CE0101960E94A80080915B014AE0BE0183
S11303706F5F7F4F90E00E94AA0260E081E00E94DC
S1130380960080915B018A3038F480E30E94A400D7
S113039089810E94A40004C0CE0101960E94A80095
S11303A080915C01889FC001112490935A0180932D
S11303B059014AE0BE016D5F7F4F0E94AA0260E0CE
S11303C08BE00E949600CE0103960E94A8008091C3
S11303D0590190915A01892B49F480E20E94A400AA
S11303E080E20E94A40080E20E94A40026960FB638
S11303F0F894DEBF0FBECDBFDF91CF91FF91EF9197
S1130400BF91AF919F918F917F916F915F914F9128
S11304103F912F910F900FBE0F901F9018951F9230
S11304200F920FB60F9211242F933F934F935F9324
S11304306F937F938F939F93AF93BF93CF93EF93D8
S1130440FF93809158018F5F863018F48093580190
S113045017C010925801809157018F5F8A3018F4A9
S1130460809357010DC010925701C0E0CF5F61E047
S11304708C2F0E94960080E00E94A400CA30B1F73D
S11304808091570161E08F5F0E949600809158012E
S11304900E94A400FF91EF91CF91BF91AF919F91E2
S11304A08F917F916F915F914F913F912F910F9019
S11304B00FBE0F901F9018951F920F920FB60F92B8
S11304C011241F932F933F934F935F936F937F93C5
S11304D08F939F93AF93BF93CF93DF93EF93FF9348
S11304E08091560190E0499714F01092560161E012
S11304F08BE00E9496001BE0C0E0D0E061E0812F19
S11305000E94960080915601FE01E85CFE4FE80FC0
S1130510F11D80810E94A40021961F5FC430D10583
S113052069F7809156018F5F80935601FF91EF9197
S1130530DF91CF91BF91AF919F918F917F916F91F7
S11305405F914F913F912F911F910F900FBE0F908C
S11305501F901895BB274A3031F4992322F4BDE249
S1130560909581959F4F0C94B602BB27FB015527AC
S1130570AA27880F991FAA1FA41710F0A41B8395FC
S11305805051B9F7A05DAA3308F0A95DA193009773
S113059079F7B111B1931192CB010C94CF02DC0124
S11305A0FC01672F71917723E1F7329704C07C91A6
S11305B06D9370836291AE17BF07C8F30895F894E2
S10505C0FFCF67
S11305C200000000000000001010101010101010A5
S11305D218181818181818181C1C1C1C1C1C1C1C75
S11305E21E1E1E1E1E1E1E1E1F1F1F1F1F1F1F1F1D
S11305F230303A30302E300048656C70206D652002
S11306024920616D207472617070656420696E7333
S10906126964652100008B
S9030000FC
