S00F000070726F6A6563742E737265631E
S11300000C9434000C9451000C9451000C94510045
S11300100C9451000C9451000C9451000C94510018
S11300200C9451000C943B020C9451000C940E025D
S11300300C9451000C9451000C9451000C945100F8
S11300400C9451000C9451000C9450050C947E05B2
S11300500C9451000C9451000C9451000C945100D8
S11300600C9451000C94510011241FBECFEFD8E022
S1130070DEBFCDBF14E0A0E0B1E0E0E1FEE002C0ED
S113008005900D92A232B107D9F724E0A2E2B4E0C0
S113009001C01D92AD39B207E1F70E94D0010C9462
S11300A006070C940000389839983A983B98409A7F
S11300B0419A429A439A3C9A3D9A3E9A449A459A66
S11300C0469A08954498309B72C0319B73C095C082
S11300D0339905C08F3F09F473C08FEF0895449A94
S11300E04598309905C08F3F09F46FC08FEF08958C
S11300F0319905C08F3F09F46BC08FEF0895329991
S113010005C08F3F09F467C08FEF0895339905C088
S11301108F3F09F463C08FEF0895459A469830994C
S113012005C08F3F09F45FC08FEF0895319905C072
S11301308F3F09F45BC08FEF0895329905C08F3F5C
S113014009F457C08FEF0895339903C08F3F19F412
S11301508BE0469A08958FEF08958FEF08958FEFFF
S113016008958FEF08958FEF08958FEF08958FEF1F
S113017008958FEF08958FEF08958FEF08958FEF0F
S113018008958FEF08958FEF08958FEF08958FEFFF
S113019008958FEF08958FEF08958FEF08958FEFEF
S11301A008958FEF08958FEF08958FEF0895319B91
S11301B0D4CF27C0329929C0D2CF33992AC0D1CF06
S11301C0449A4598309BCFCF2AC0319BCECF2BC0C9
S11301D0329BCDCF2CC033992EC0CBCF459A4698B5
S11301E0309BC9CF2EC0319BC8CF2FC0329BC7CF05
S11301F030C0339BC6CF89E0ACCF329BDECF8FEFCC
S113020067CF329BC0CF81E063CF339BBECF84E006
S113021066CF449A4598309BBACF87E069CF319B2B
S1130220B8CF8AE06CCF329BB6CF82E06FCF339BDE
S1130230B4CF85E072CF459A4698309BB0CF88E022
S113024075CF319BAECF80E078CF329BACCF83E0CB
S11302507BCF339BAACF86E07CCF5F9A85E08A95DB
S1130260F1F700005F980895CF93C82F662311F02B
S1130270589A01C05898529A539A549A559A5D982C
S11302805C985B985A98CC230CF45D9AC6FD5C9AF2
S1130290C5FD5B9AC4FD5A9A0E942D015D985C9835
S11302A05B985A98C3FD5D9AC2FD5C9AC1FD5B9A46
S11302B0C0FD5A9A0E942D015A9A5B9A5C9A5D9AE3
S11302C087EB9BE00197F1F700C00000CF91089500
S11302D060E00E9434010895611104C080580E94B6
S11302E06801089580540E946801089581E00E9485
S11302F06801089561E00E9434010895CF93DF936B
S1130300EC012196FC018081882329F00E947A0166
S113031089918111FBCFDF91CF910895CF93C82F9D
S1130320509A559A579A529A539A549A559A8FEFCB
S113033099EF0197F1F700C000005B9A5A9A0E9466
S11303402D018FE19EE40197F1F700C000000E94A7
S11303502D018FEF90E00197F1F700C000000E949B
S11303602D018FEF90E00197F1F700C000005A983B
S11303700E942D018FEF90E00197F1F700C000007B
S113038088E20E94680188E00E9468010E94760168
S113039086E00E9468018C2F0E946801CF91089525
S11303A08CE00E948E0160E080E00E946C0186E097
S11303B091E00E947E0161E080E00E946C0187E18F
S11303C091E00E947E010E945300E1EBF0E0808105
S11303D087608083E0E7F0E0808181608083E1E8EA
S11303E0F0E080818A60808380818A7E8083E0E877
S11303F0F0E080818C7F8083EFE6F0E08081826092
S1130400808381E080938900109288008FEF84B903
S113041087E690E00E94A8057894FFCF1F920F9280
S11304200FB60F9211242F933F934F935F936F93C3
S11304307F938F939F93AF93BF93EF93FF93809199
S11304402B04813021F40E94A10685B903C015B89C
S11304500E940B06FF91EF91BF91AF919F918F91F5
S11304607F916F915F914F913F912F910F900FBEAC
S11304700F901F9018951F920F920FB60F92112490
S1130480CF92DF92EF92FF920F931F932F933F939C
S11304904F935F936F937F938F939F93AF93BF9388
S11304A0EF93FF93CF93DF9300D000D0CDB7DEB7A7
S11304B080E290E29A8389839C838B8380912A04CF
S11304C0823020F48F5F80932A040DC010922A0496
S11304D000E011E0F80181818283808181830E94A0
S11304E06200F8018083E0E0F1E0808111818113F2
S11304F00FC0909102018913AAC28F3F09F4A7C2C9
S1130500809129048111A3C281E0809329049AC2B5
S113051080910201181396C21F3F09F493C280917F
S11305202904813009F08EC210922904E0E0F1E040
S11305308FEF80838183828380912804813009F046
S113054065C201C01FEF80912704811136C01A30A3
S113055019F580912B04811110C081E080932B0444
S113056061E08DE00E946C0188E291E00E947E01CE
S11305708CE291E00E94D60576C210922B0461E0D1
S11305808DE00E946C0189E391E00E947E018EE37C
S113059091E00E94D60567C21B3009F064C281E075
S11305A08093270410922B048EE391E00E94D605D9
S11305B08CE491E00E94D60556C2809126048230D4
S11305C009F483C028F4882361F08130E1F14BC23F
S11305D0843009F4B8C008F497C0853009F4D3C056
S11305E042C260E080E00E946C0189E591E00E94D3
S11305F07E0161E080E00E946C018AE691E00E9445
S11306007E01123071F01330A9F0113009F02BC2C1
S113061081E080930301809126048F5F80932604F8
S113062022C282E080930301809126048F5F80932D
S1130630260419C283E080930301809126048F5F0E
S11306408093260410C260E080E00E946C018BE776
S113065091E00E947E0161E080E00E946C018CE8E0
S113066091E00E947E011A3008F0FDC10F2EF2E2E3
S1130670EF2EF4E0FF2EF02DF70110838091260475
S11306808F5F8093260461E080E00E946C018DE915
S113069091E00E947E0161E086E00E946C0182E0AC
S11306A092E00E947E0161E082E00E946C01F70109
S11306B080814AE0BE016F5F7F4F90E00E94D106C7
S11306C0CE0101960E947E01CEC11A3008F0CBC142
S11306D00F2EF2E2EF2EF4E0FF2EF02DF70111833E
S11306E083E08093260461E00E946C01F70181811C
S11306F04AE0BE016F5F7F4F90E00E94D106CE01B9
S113070001960E947E01AFC11A3008F0ACC10F2ED1
S1130710F2E2EF2EF4E0FF2EF02DF701128384E0D5
S11307208093260461E00E946C01F70182814AE013
S1130730BE016F5F7F4F90E00E94D106CE0101960B
S11307400E947E0190C11A3008F08DC10F2EF2E292
S1130750EF2EF4E0FF2EF02DF701138385E0809354
S1130760260461E084E00E946C01F70183814AE081
S1130770BE016F5F7F4F90E00E94D106CE010196CB
S11307800E947E0170C160E080E00E946C018EEAEC
S113079091E00E947E0161E080E00E946C01809102
S11307A00301823049F0833061F0813071F48FEBC2
S11307B091E00E947E0109C083EC91E00E947E01D9
S11307C004C087EC91E00E947E018CEA91E00E94D3
S11307D07E0180912204811159C08CEA91E00E942B
S11307E07E0180912304811133C08CEA91E00E9440
S11307F07E0180912404811112C08CEA91E00E9450
S11308007E01809125044AE0BE016F5F7F4F90E036
S11308100E94D106CE0101960E947E0154C04AE096
S1130820BE016F5F7F4F90E00E94D106CE0101961A
S11308300E947E01809125044AE0BE016F5F7F4FD4
S113084090E00E94D106CE0101960E947E013BC039
S11308500F2EF3E2EF2EF4E0FF2EF02D0F2EF6E232
S1130860CF2EF4E0DF2EF02DF70181917F014AE0D5
S1130870BE016F5F7F4F90E00E94D106CE010196CA
S11308800E947E01EC14FD0479F71DC00F2EF2E2E4
S1130890EF2EF4E0FF2EF02D0F2EF6E2CF2EF4E033
S11308A0DF2EF02DF70181917F014AE0BE016F5FD9
S11308B07F4F90E00E94D106CE0101960E947E01F6
S11308C0EC14FD0479F78BEC91E00E947E011A3060
S11308D019F01B3021F0C7C010922604C4C0109236
S11308E0270410922604E2E2F4E0408128EE33E08B
S11308F0429FC001439F900D11242181AC0134E635
S1130900239F400D511D11249281892F90E0BC0139
S1130910660F771F9C01220F331F220F331F220FF4
S1130920331FCB01820F931F840F951F2381820FE6
S1130930911D90932D0480932C0460E080E00E942C
S11309406C018DE991E00E947E0161E080E00E94EB
S11309506C018DE991E00E947E0160E080E00E94DC
S11309606C0180910301823069F08330A1F0813001
S1130970D1F484ED91E00E947E0189ED91E00E9422
S1130980D60511C08FED91E00E947E0188EE91E0C2
S11309900E94D60508C082EF91E00E947E0189EF93
S11309A091E00E94D60561E080E00E946C01809194
S11309B02C0490912D044AE0BE016F5F7F4F0E948A
S11309C0D106CE0101960E947E0181E092E00E9450
S11309D07E01CE0101960E94D60585E092E00E9438
S11309E0D60561E089E00E946C018BE092E00E94F0
S11309F07E018EE391E00E94D60560912C047091F3
S1130A002D04809103010E94E5052DC01B3059F58A
S1130A1081E0809328048093270460E080E00E94B2
S1130A206C018DE991E00E947E0161E080E00E940A
S1130A306C018DE991E00E947E0183E192E00E94C5
S1130A40D60511C080912804813069F406C08091D4
S1130A502804813009F476CD06C0809127048823C8
S1130A6011F01FEFAACD0F900F900F900F90DF9110
S1130A70CF91FF91EF91BF91AF919F918F917F9112
S1130A806F915F914F913F912F911F910F91FF9023
S1130A90EF90DF90CF900F900FBE0F901F9018959E
S1130AA01F920F920FB60F9211242F938F939F933F
S1130AB0EF93FF938091C0002091C6008C71E09168
S1130AC03004EF5FEF7390912F04E91739F0E0934E
S1130AD03004F0E0ED5CFB4F208301C082E0909194
S1130AE02E04892B80932E04FF91EF919F918F9177
S1130AF02F910F900FBE0F901F9018951F920F9279
S1130B000FB60F9211248F939F93EF93FF939091BD
S1130B10320480913104981769F0E0913104EF5F59
S1130B20EF71E0933104F0E0ED58FB4F8081809346
S1130B30C60005C0E1ECF0E080818F7D8083FF91E9
S1130B40EF919F918F910F900FBE0F901F9018956A
S1130B5010923204109231041092300410922F0437
S1130B6099231CF422E02093C00090789093C50050
S1130B708093C40088E98093C10086E08093C2001A
S1130B800895209132042F5F2F7190913104291719
S1130B90E1F3E22FF0E0ED58FB4F80832093320421
S1130BA0E1ECF0E08081806280830895CF93DF934D
S1130BB0EC018881882331F021960E94C105899136
S1130BC08111FBCFDF91CF910895482F9B01E091D4
S1130BD00401F0910501CB01BF010E94BD06709391
S1130BE09A04609399046091990470919A04E69F21
S1130BF0C001E79F900DF69F900D1124281B390B1F
S1130C003093980420939704F0939604E09395040A
S1130C1040939404089510929C0410929B04809134
S1130C200401909105019093960480939504109289
S1130C309304089580919B0490919C048F3F9105A7
S1130C4009F028F480919B0490919C04089580916C
S1130C509B0490919C048095089520919B0430916D
S1130C609C0481E02F3F310511F008F080E081956C
S1130C70089580919304813091F4209199043091E6
S1130C809A0480919B0490919C04820F931F019677
S1130C9090939C0480939B04109293040EC0209123
S1130CA0990430919A0480919B0490919C04820F42
S1130CB0931F90939C0480939B0480919B04909138
S1130CC09C048115924050F080919B0490919C0467
S1130CD08F5F914090939C0480939B04089520918E
S1130CE09504309196048091970490919804281764
S1130CF03907C0F4209197043091980440919504E9
S1130D00509196048091040190910501840F951FE0
S1130D10821B930B909396048093950481E08093B7
S1130D209304089520919704309198048091950438
S1130D3090919604821B930B909396048093950450
S1130D4008950E946F060E943906809194048230AF
S1130D5061F0833069F0813071F4E0919B04F0918B
S1130D609C04EF5DFD4F808108950E941A0608954A
S1130D700E942D06089580E80895AA1BBB1B51E12B
S1130D8007C0AA1FBB1FA617B70710F0A61BB70BF7
S1130D90881F991F5A95A9F780959095BC01CD019C
S1130DA00895BB274A3031F4992322F4BDE290958B
S1130DB081959F4F0C94DD06BB27FB015527AA277D
S1130DC0880F991FAA1FA41710F0A41B83955051D4
S1130DD0B9F7A05DAA3308F0A95DA193009779F74C
S1130DE0B111B1931192CB010C94F606DC01FC0114
S1130DF0672F71917723E1F7329704C07C916D934B
S1130E0070836291AE17BF07C8F30895F894FFCFBB
S1130E10FFFFFFFF0F005349474E414C2047454E0B
S1130E20455241544F52005072657373202320740D
S1130E306F207374617274004F4E20004F7574708C
S1130E4075743A204F4E0D0A004F464620004F75E8
S1130E50747075743A204F46460D0A0053656C65EC
S1130E606374696E673A0D0A0053454C4543543A1E
S1130E702020312053494E2020002020322054527B
S1130E8049202033205351522020005459504520EA
S1130E904652455155454E43592020002031352DA9
S1130EA03130303020487A2020202020002020209B
S1130EB02020202020202020202020202000434FFC
S1130EC04E4649524D202020202A204E4F200053C8
S1130ED0494E005452490053515200487A2023206D
S1130EE05945530053494E450053494E452000543B
S1130EF05249414E474C4500545249414E474C4596
S1130F0020005351554152450053515541524520FB
S1130F100020487A0020487A0D0A004F55543A4F71
S1130F204646005374617274696E672E2E2E0D0A44
S1130F3000808183848687898A8C8E8F9192949590
S1130F4097989A9B9D9EA0A2A3A5A6A7A9AAACAD7B
S1130F50AFB0B2B3B5B6B7B9BABCBDBEC0C1C2C4F6
S1130F60C5C6C8C9CACBCDCECFD0D2D3D4D5D6D797
S1130F70D9DADBDCDDDEDFE0E1E2E3E4E5E6E7E865
S1130F80E9EAEAEBECEDEEEEEFF0F1F1F2F3F3F473
S1130F90F5F5F6F6F7F8F8F9F9FAFAFAFBFBFCFCC2
S1130FA0FCFDFDFDFDFEFEFEFEFEFFFFFFFFFFFF5D
S1130FB0FFFFFFFFFFFFFFFFFFFEFEFEFEFEFDFD46
S1130FC0FDFDFCFCFCFBFBFAFAFAF9F9F8F8F7F67C
S1130FD0F6F5F5F4F3F3F2F1F1F0EFEEEEEDECEB00
S1130FE0EAEAE9E8E7E6E5E4E3E2E1E0DFDEDDDCC6
S1130FF0DBDAD9D7D6D5D4D3D2D0CFCECDCBCAC9CC
S1131000C8C6C5C4C2C1C0BEBDBCBAB9B7B6B5B303
S1131010B2B0AFADACAAA9A7A6A5A3A2A09E9D9B62
S11310209A9897959492918F8E8C8A8987868483D7
S113103081807E7C7B797876757371706E6D6B6A56
S11310406867656462615F5D5C5A595856555352CE
S1131050504F4D4C4A494846454342413F3E3D3B33
S11310603A39373635343231302F2D2C2B2A292872
S1131070262524232221201F1E1D1C1B1A19181784
S11310801615151413121111100F0E0E0D0C0C0B56
S11310900A0A0909080707060605050504040303E7
S11310A0030202020201010101010000000000002C
S11310B00000000000000000000101010101020223
S11310C002020303030404050505060607070809CD
S11310D0090A0A0B0C0C0D0E0E0F10111112131429
S11310E01515161718191A1B1C1D1E1F2021222343
S11310F024252628292A2B2C2D2F3031323435361D
S113110037393A3B3D3E3F414243454648494A4CC4
S11311104D4F505253555658595A5C5D5F61626445
S11311206567686A6B6D6E707173757678797B7CB0
S10511307E003B
S9030000FC
