S00F000030322D6C6564732E73726563DE
S11300000C9434000C943E000C943E000C943E007E
S11300100C943E000C943E000C943E000C943E0064
S11300200C943E000C943E000C943E000C943E0054
S11300300C943E000C943E000C943E000C943E0044
S11300400C943E000C943E000C943E000C943E0034
S11300500C943E000C943E000C943E000C943E0024
S11300600C943E000C943E0011241FBECFEFD8E048
S1130070DEBFCDBF0E9440000C948C000C940000A5
S11300805098589A87B18F6187B988B18F6188B9C0
S113009061E070E040E150E03CC080E090E02FEF90
S11300A034E3ECE021503040E040E1F700C00000D0
S11300B09B01082E02C0220F331F0A94E2F72095F9
S11300C028B901968530910551F780E090E02FEF33
S11300D034E3ECE021503040E040E1F700C00000A0
S11300E09A01082E02C0359527950A94E2F72095C7
S11300F028B901968530910551F72FEF34E38CE050
S1130100215030408040E1F700C0000088B18F6189
S10F011088B94899FECFC1CFF894FFCF06
S9030000FC
